:020000040800F2
:1000000000200020DD04000829050008290500085B
:1000100000000000000000000000000000000000E0
:10002000000000000000000000000000290500089A
:100030000000000000000000290500085D02000823
:1000400029050008290500082905000829050008D8
:1000500029050008290500082905000829050008C8
:1000600029050008290500082905000829050008B8
:1000700029050008290500082905000829050008A8
:1000800029050008290500080000000029050008CE
:100090002905000829050008290500082905000888
:1000A0002905000829050008290500082905000878
:1000B00029050008000000002905000800000000D4
:1000C0005FF808F180B582B000AF78600A1CFB1CB5
:1000D0001A70FB1C1B78002B06D0084B074A51698D
:1000E0007A680A435A6106E0044B044A5269796807
:1000F000C9430A405A61BD4602B080BD00100240AB
:1001000080B582B000AF78600A1CFB1C1A70FB1C23
:100110001B78002B06D0084B074A91697A680A437E
:100120009A6106E0044B044A92697968C9430A401F
:100130009A61BD4602B080BD00100240B0B582B0E9
:1001400000AF021C3960FB1D1A70FB1D1B787F2B52
:100150002FD92D4CFB1D1B781A1C0F231340083B75
:100160009908294AFB1D1B78181C0F230340083BE4
:100170009B0806339B00D3185B68FA1D1278101C8D
:1001800003220240D200101CFF228240D2431A40B8
:100190003B689B01FF200340F81D0078051C0320ED
:1001A0002840C00083401A438B1D9B00E3185A600F
:1001B00026E0164CFB1D1B785BB29B081349FA1D09
:1001C000127852B29208C03292005258F91D097842
:1001D000081C03210140C900081CFF218140C943BC
:1001E00011403A689201FF200240F81D0078051C7A
:1001F00003202840C00082400A43C0339B001A51AC
:10020000BD4602B0B0BDC04600ED00E000E100E038
:1002100080B582B000AF78607B680E4A934201D906
:10022000012312E00C4B7A681202120A013A5A605A
:1002300001235B42181C0321FFF780FF064B0022BD
:100240009A60054B07221A600023181CBD4602B0B5
:1002500080BDC046FFFFFF0010E000E080B500AFAA
:100260001E4B1B685A1C1D4B1A601C4B1B68181C2C
:10027000FA23990002F008F80B1C1A1E184B9A4238
:1002800029D1184B1B78DBB20133DAB2154B1A7047
:10029000144B1B78DBB23C2B1DD1124B00221A7081
:1002A000114B1B78DBB20133DAB20F4B1A700E4BD5
:1002B0001B78DBB23C2B0ED10C4B1B78DBB201332D
:1002C000DAB20A4B1A70094B1B78DBB2182B02D139
:1002D000064B00221A70BD4680BDC04618000020A3
:1002E000E70300001E0000201D0000201C0000206D
:1002F00080B586B002AF01F0C5FC714B1B68181CBD
:10030000FA23990001F03AFF031C181CFFF780FF45
:1003100001F07AFD012001F0EFFE3223FB60694B12
:10032000BB60FB1D00221A70674A01230093101C5A
:1003300000210022002300F043FC021CFB1D1A7068
:10034000624B1B78DBB2191CFB1D1B789BB21AB2E7
:100350000023009300230193081C111C0022012399
:1003600000F058FD021CFB1D1A70FB1D1B789BB290
:100370001AB2002300933A20111C0022002300F03F
:1003800077FA021CFB1D1A70514B1B78DBB2191C4B
:10039000FB1D1B789BB21AB200230093002301932C
:1003A000081C111C0022012300F034FD021CFB1D5F
:1003B0001A70FB1D1B789BB21AB2002300933A20DF
:1003C000111C0022002300F053FA021CFB1D1A70BE
:1003D000404B1B78DBB2191CFB1D1B789BB21AB279
:1003E0000023009300230193081C111C0022012309
:1003F00000F010FD021CFB1D1A70374A0123009308
:10040000101C00211022002300F0DAFB021CFB1D4F
:100410001A70FB1D1B789BB21AB2002300930023B5
:1004200001930A20111C1022012300F0F3FC021C8E
:10043000FB1D1A70FB1D1B789BB21AB200230093A0
:100440002F20111C1022002300F012FA021CFB1DA9
:100450001A70FB1D1B789BB21AB200230093002375
:1004600001930B20111C1022012300F0D3FC021C6D
:10047000FB1D1A70FB1D1B789BB21AB20023009360
:100480002F20111C1022002300F0F2F9021CFB1D8A
:100490001A70FB1D1B789BB21AB200230093002335
:1004A00001930C20111C1022012300F0B3FC021C4C
:1004B000FB1D1A7000F016F900F042F934E7C0464F
:1004C00000000020DC050000C82D00081C000020F2
:1004D0001D0000201E000020D02D00080C4885467D
:1004E000002103E00B4B5B58435004310A480B4B8F
:1004F00042189A42F6D30A4A02E0002313600432FB
:10050000084B9A42F9D301F0BDFBFFF7F1FEFEE77D
:1005100000200020183100080000002018000020F2
:10052000180000203C040020FEE7000080B584B0E5
:1005300000AF786039600E23FB1800221A800E236A
:10054000FB187A6812881A800E23FB180E22BA183C
:100550001188C12292010A401A803B681A883B68C0
:10056000DB8913439AB23B68DB8813439AB23B683A
:100570001B8913439AB23B685B8913439AB23B6869
:100580009B89134399B20E23FB180E22BA181288C6
:100590000A431A807B680E22BA1812881A800E232A
:1005A000FB187A6892881A800E23FB180E22BA185C
:1005B00012881D490A401A803B6899880E23FB184F
:1005C0000E22BA1812880A431A807B680E22BA18C3
:1005D00012889A803B681A8A7B681A820E23FB185D
:1005E0007A6812881A800E23FB180E22BA18128815
:1005F00004218A431A803B6859880E23FB180E2277
:10060000BA1812880A431A807B680E22BA18128818
:100610001A807B689B8B9BB2044A13409AB27B681A
:100620009A83BD4604B080BDFFF0FFFFFFF7FFFFD8
:1006300080B582B000AF78600A1CFB1C1A70FB1CEE
:100640001B78002B08D07B681B889BB24022134389
:100650009AB27B681A8007E07B681B889BB24022B5
:1006600093439AB27B681A80BD4602B080BDC046F3
:1006700080B584B000AF78600A1CFB1C1A700023A0
:10068000FB607B68FB60FB680C33FB60FB68FA1C5B
:1006900012781A70BD4604B080BDC04680B584B0E3
:1006A00000AF78600A1CBB1C1A800F23FB180022C5
:1006B0001A707B681B899BB2BA1C128813409BB2CC
:1006C000002B04D00F23FB1801221A7003E00F2324
:1006D000FB1800221A700F23FB181B78181CBD464C
:1006E00004B080BD80B582B000AF9023DB05181C3C
:1006F000042101F04DFABB1D00221A800DE0BB1D44
:100700001B880D4AD35C181C0021002201F0A8FCB4
:10071000BB1D1A88BB1D01321A80BB1D1B88074AEE
:100720009342ECD99023DB05181C042101F022FA36
:10073000BD4602B080BDC04628000020FF03000077
:1007400080B500AF044A8023DB00101C00211A1C76
:1007500002F0C0FABD4680BD2800002090B585B0EB
:1007600000AF041C081C111CBB1D221C1A803B1D61
:10077000021C1A80FB1C0A1C1A70BB1D00229B5E07
:100780007F2B0EDCBB1D00229B5E002B09DB3B1D7B
:1007900000229B5E3F2B04DC3B1D00229B5E002B56
:1007A00001DA01235BE03B1D00229B5EDB109BB264
:1007B0009BB2DB019AB2BB1D1B88D3189AB20C23E3
:1007C000FB181A800C23FB1800229A5E0F23FB18DB
:1007D00025498A5C1A70FB1C1B78002B19D13B1D24
:1007E00000229B5E214A134004D5013B082252425D
:1007F000134301339BB21BB201229A40131CDAB29D
:100800000F23FB181B781343DAB20F23FB181A705F
:100810001BE03B1D00229B5E144A134004D5013BA4
:1008200008225242134301339BB21BB201229A4069
:10083000131CDBB2DB43D9B20F23FB181A780B1C55
:100840001340DAB20F23FB181A700C23FB18002296
:100850009B5E054A0F2179180978D1540023181C92
:10086000BD4605B090BDC0462800002007000080AE
:10087000B0B584B000AF051C0C1C101C191CBB1DAE
:100880002A1C1A803B1D221C1A80BB1C021C1A80C9
:100890007B1C0A1C1A70BB1DBA1D1288203A1A80D4
:1008A000BA1DBB1D1B88191C8900CB1813807B1C2B
:1008B0001B78012B00D17DE0022B00D1F1E0002B51
:1008C00000D06DE10E23FB1800221A806BE0BB1DE7
:1008D0001A880E23FB181B88D318B84AD25C0A2347
:1008E000FB181A800C23FB1800221A804FE00A2301
:1008F000FB181A880C23FB181B881A41131C0122B1
:1009000013401FD03B1D1A880E23FB181B88D318D9
:100910009BB298B2BB1C1A880C23FB181B88D318F7
:100920009BB299B22023FB181B78013B5A425341DA
:10093000DBB21C1C02B20BB2101C191C221CFFF7EC
:100940000DFF1DE03B1D1A880E23FB181B88D318D2
:100950009BB298B2BB1C1A880C23FB181B88D318B7
:100960009BB299B22023FB181B785A425341DBB249
:100970001C1C02B20BB2101C191C221CFFF7EEFE4D
:100980000C23FB181A880C23FB1801321A800C2345
:10099000FB181B88072BAAD90E23FB181A880E23D5
:1009A000FB1801321A800E23FB181B88042B00D879
:1009B0008DE7F5E00E23FB1800221A806AE00C2375
:1009C000FB1800221A8059E0BB1D1B880E22BA18A2
:1009D0001288520892B29B18784AD35C1A1C0C23D6
:1009E000FB181B885B089BB21A41131C01221340A1
:1009F0001FD03B1D1A880E23FB181B88D3189BB2EF
:100A000098B2BB1C1A880C23FB181B88D3189BB206
:100A100099B22023FB181B78013B5A425341DBB2A9
:100A20001C1C02B20BB2101C191C221CFFF796FEF4
:100A30001DE03B1D1A880E23FB181B88D3189BB2A0
:100A400098B2BB1C1A880C23FB181B88D3189BB2C6
:100A500099B22023FB181B785A425341DBB21C1C6D
:100A600002B20BB2101C191C221CFFF777FE0C23DC
:100A7000FB181A880C23FB1801321A800C23FB1870
:100A80001B880F2BA0D90E23FB181A880E23FB18E6
:100A900001321A800E23FB181B88092B00D88EE721
:100AA0007EE00E23FB1800221A8072E00C23FB1854
:100AB00000221A8061E0BB1D1C880E23FB181B88D6
:100AC000181C032101F05AFB031C9BB2E3183B4A9C
:100AD000D35C1C1C0C23FB181B88181C032101F081
:100AE0004DFB031C9BB21C41231C012213401FD051
:100AF0003B1D1A880E23FB181B88D3189BB298B293
:100B0000BB1C1A880C23FB181B88D3189BB299B204
:100B10002023FB181B78013B5A425341DBB21C1CBB
:100B200002B20BB2101C191C221CFFF717FE1DE0AD
:100B30003B1D1A880E23FB181B88D3189BB298B252
:100B4000BB1C1A880C23FB181B88D3189BB299B2C4
:100B50002023FB181B785A425341DBB21C1C02B203
:100B60000BB2101C191C221CFFF7F8FD0C23FB18FC
:100B70001A880C23FB1801321A800C23FB181B88DF
:100B8000172B98D90E23FB181A880E23FB18013255
:100B90001A800E23FB181B880E2B00D886E7C04650
:100BA0003B1D0021595E7B1C1B785A1C131C9B00AB
:100BB0009B18CB18181CBD4604B0B0BDD82D00083A
:100BC00090B589B002AFF8600C1C101C191C0A23E8
:100BD000FB18221C1A800823FB18021C1A80FB1D1C
:100BE0000A1C1A701623FB180A22BA1812881A70E7
:100BF000FB68181C02F0B4F8021C1523FB181A70CD
:100C0000FB1D1B78012B55D0022B00D1A1E0002B3E
:100C100000D0EBE00A23FB180021595E1523FB18D6
:100C20001A78131C9B079B1A9B009B1A80339942CE
:100C300005DC0823FB1800229B5E382B02DD012314
:100C40005B42E2E01723FB1800221A7029E0172309
:100C5000FB181B78FA68D3181B7898B21723FB1877
:100C60001B789BB21A1C9200D3189AB20A23FB1865
:100C70001B88D3189BB29BB219B20823FB18002221
:100C80009A5EFB1D1C782823FB181B780093231CFD
:100C9000FFF7EEFD1723FB181A781723FB18013214
:100CA0001A701723FA181523FB1812781B789A422A
:100CB000CDD39BE00A23FB1800229A5E1523FB1874
:100CC0001B780A2149424B4380339A4205DC0823B2
:100CD000FB1800229B5E302B02DD01235B4294E077
:100CE0001723FB1800221A702AE01723FB181B7821
:100CF000FA68D3181B7898B21723FB181B789BB29D
:100D00001A1C9200D318DB189AB20A23FB181B880E
:100D1000D3189BB29BB219B20823FB1800229A5E2B
:100D2000FB1D1C782823FB181B780093231CFFF75E
:100D30009FFD1723FB181A781723FB1801321A702E
:100D40001723FA181523FB1812781B789A42CCD374
:100D50004CE00A23FB1800229A5E1523FB181B782F
:100D6000191C1B01CB1A80339A4205DC0823FB189F
:100D700000229B5E282B02DD01235B4245E0172306
:100D8000FB1800221A7029E01723FB181B78FA6859
:100D9000D3181B7898B21723FB181B789BB21A1C28
:100DA0001201D31A9AB20A23FB181B88D3189BB2DC
:100DB0009BB219B20823FB1800229A5EFB1D1C7817
:100DC0002823FB181B780093231CFFF751FD1723E2
:100DD000FB181A781723FB1801321A701723FA1818
:100DE0001523FB1812781B789A42CDD30A23FB18DF
:100DF0000021595E1523FB181878FB1D1B785A1C1F
:100E0000131C9B009B184343CB18181CBD4607B00E
:100E100090BDC04690B58BB002AFF8600C1C101CA2
:100E2000191C0A23FB18221C1A800823FB18021C19
:100E30001A80FB1D0A1C1A701E23FB1800221A7050
:100E40001023FB18181C0021092201F043FF0A237C
:100E5000FB1800229B5E002B03DA02235B4200F0AA
:100E6000F9FCFB68002B07DAFB685B42FB601D2383
:100E7000FB1801221A7006E0FB68002B03DD1D231E
:100E8000FB1800221A70FB68092B0BDCFB68DBB235
:100E90003033DAB21023FB181A701E23FB1801221C
:100EA0001A70FBE2FB68632B1CDCFB68181C0A2130
:100EB00001F0F4F9031CDBB23033DAB21023FB1873
:100EC0001A70FB68181C0A2101F0CEFA0B1CDBB269
:100ED0003033DAB21023FB185A701E23FB1802229B
:100EE0001A70DBE2FB68D44A93422DDCFB68181CC5
:100EF000642101F0D3F9031CDBB23033DAB21023E2
:100F0000FB181A70FB68181C0A2101F0C7F9031CB2
:100F1000181C0A2101F0A8FA0B1CDBB23033DAB23C
:100F20001023FB185A70FB68181C0A2101F09CFA68
:100F30000B1CDBB23033DAB21023FB189A701E237D
:100F4000FB1803221A70A9E2FB68BC4A93423FDCFB
:100F5000FB68181CFA23990001F0A0F9031CDBB20E
:100F60003033DAB21023FB181A70FB68181C6421A6
:100F700001F094F9031C181C0A2101F075FA0B1CEE
:100F8000DBB23033DAB21023FB185A70FB68181C3E
:100F90000A2101F083F9031C181C0A2101F064FAEC
:100FA0000B1CDBB23033DAB21023FB189A70FB68EB
:100FB000181C0A2101F058FA0B1CDBB23033DAB2EC
:100FC0001023FB18DA701E23FB1804221A7065E246
:100FD000FB689B4A934250DCFB68181C994901F05E
:100FE0005DF9031CDBB23033DAB21023FB181A7040
:100FF000FB68181CFA23990001F050F9031C181C17
:101000000A2101F031FA0B1CDBB23033DAB21023C3
:10101000FB185A70FB68181C642101F03FF9031C8F
:10102000181C0A2101F020FA0B1CDBB23033DAB2B3
:101030001023FB189A70FB68181C0A2101F02EF986
:10104000031C181C0A2101F00FFA0B1CDBB2303311
:10105000DAB21023FB18DA70FB68181C0A2101F0C1
:1010600003FA0B1CDBB23033DAB21023FB181A710F
:101070001E23FB1805221A7010E2FB68724A934285
:1010800061DCFB68181C714901F008F9031CDBB234
:101090003033DAB21023FB181A70FB68181C694948
:1010A00001F0FCF8031C181C0A2101F0DDF90B1CEF
:1010B000DBB23033DAB21023FB185A70FB68181C0D
:1010C000FA23990001F0EAF8031C181C0A2101F028
:1010D000CBF90B1CDBB23033DAB21023FB189A7059
:1010E000FB68181C642101F0D9F8031C181C0A21A4
:1010F00001F0BAF90B1CDBB23033DAB21023FB1863
:10110000DA70FB68181C0A2101F0C8F8031C181CCF
:101110000A2101F0A9F90B1CDBB23033DAB210233B
:10112000FB181A71FB68181C0A2101F09DF90B1CB1
:10113000DBB23033DAB21023FB185A711E23FB18CE
:1011400006221A70AAE1FB68414A934200DD83E05F
:10115000FB68181C3F4901F0A1F8031CDBB23033D7
:10116000DAB21023FB181A70FB68181C374901F01B
:1011700095F8031C181C0A2101F076F90B1CDBB250
:101180003033DAB21023FB185A70FB68181C2D4953
:1011900001F084F8031C181C0A2101F065F90B1CEE
:1011A000DBB23033DAB21023FB189A70FB68181CDC
:1011B000FA23990001F072F8031C181C0A2101F0AF
:1011C00053F90B1CDBB23033DAB21023FB18DA70A0
:1011D000FB68181C642101F061F8031C181C0A212B
:1011E00001F042F90B1CDBB23033DAB21023FB18EA
:1011F0001A71FB68181C0A2101F050F8031C181C16
:101200000A2101F031F90B1CDBB23033DAB21023C2
:10121000FB185A71FB68181C0A2101F025F90B1CF8
:10122000DBB23033DAB21023FB189A711E23FB189D
:1012300007221A7032E1C046E70300000F270000C2
:101240009F860100102700003F420F00A08601008A
:101250007F96980040420F00FB68EC4A934200DD05
:1012600083E0FB68181CEA4901F018F8031CDBB2A4
:101270003033DAB21023FB181A70FB68181CE549EA
:1012800001F00CF8031C181C0A2101F0EDF80B1CEE
:10129000DBB23033DAB21023FB185A70FB68181C2B
:1012A000DD4900F0FBFF031C181C0A2101F0DCF8EB
:1012B0000B1CDBB23033DAB21023FB189A70FB68D8
:1012C000181CD64900F0EAFF031C181C0A2101F083
:1012D000CBF80B1CDBB23033DAB21023FB18DA7018
:1012E000FB68181CFA23990000F0D8FF031C181C97
:1012F0000A2101F0B9F80B1CDBB23033DAB210234B
:10130000FB181A71FB68181C642100F0C7FF031C4E
:10131000181C0A2101F0A8F80B1CDBB23033DAB23A
:101320001023FB185A71FB68181C0A2100F0B6FF45
:10133000031C181C0A2101F097F80B1CDBB2303398
:10134000DAB21023FB189A71FB68181C0A2101F00D
:101350008BF80B1CDBB23033DAB21023FB18DA71D6
:101360001E23FB1808221A7098E0FB68AC4A9342CF
:1013700000DD93E0FB68181CAA4900F08FFF031CF6
:10138000DBB23033DAB21023FB181A70FB68181C7A
:101390009F4900F083FF031C181C0A2101F064F828
:1013A0000B1CDBB23033DAB21023FB185A70FB6827
:1013B000181C984900F072FF031C181C0A2101F048
:1013C00053F80B1CDBB23033DAB21023FB189A70DF
:1013D000FB68181C904900F061FF031C181C0A21CF
:1013E00001F042F80B1CDBB23033DAB21023FB18E9
:1013F000DA70FB68181C894900F050FF031C181CA8
:101400000A2101F031F80B1CDBB23033DAB21023C1
:10141000FB181A71FB68181CFA23990000F03EFFB4
:10142000031C181C0A2101F01FF80B1CDBB230331F
:10143000DAB21023FB185A71FB68181C642100F003
:101440002DFF031C181C0A2101F00EF80B1CDBB247
:101450003033DAB21023FB189A71FB68181C0A218A
:1014600000F01CFF031C181C0A2100F0FDFF0B1CE0
:10147000DBB23033DAB21023FB18DA71FB68181CC8
:101480000A2100F0F1FF0B1CDBB23033DAB210237B
:10149000FB181A721E23FB1809221A703023FB183E
:1014A0001B78012B00D19BE0022B00D13AE1002BED
:1014B00000D0CBE10A23FB180021595E1E23FB1844
:1014C0001A78131C9B079B1A9B009B1A8033994226
:1014D00005DC0823FB1800229B5E382B02DD01236C
:1014E0005B42B7E11D23FB181B78012B17D10A23A0
:1014F000FB180021595E0823FB1800229A5E342352
:10150000FB181B7800932D200023FFF7B1F90A2365
:10151000FB181B8805339AB20A23FB181A801F2375
:10152000FB181E22BA181278013A1A701EE00A231C
:10153000FB180021595E0823FB1800229A5E342311
:10154000FB181B78009330200023FFF791F90A2342
:10155000FB181B8805339AB20A23FB181A801F2335
:10156000FB181A781F23FB1801321A701F23FA1870
:10157000FB1D12781B789A42D9D31F23FB18002237
:101580001A7024E01F23FB181B781022BA18D35CB2
:1015900098B20A23FB180021595E0823FB18002289
:1015A0009A5E3423FB181B7800930023FFF760F941
:1015B0000A23FB181B8805339AB20A23FB181A80EA
:1015C0001F23FB181A781F23FB1801321A701F23E0
:1015D000FA181E23FB1812781B789A42D2D335E1F1
:1015E0000A23FB1800229A5E1E23FB181B780A218F
:1015F00049424B4380339A4205DC0823FB18002202
:101600009B5E302B10DD01235B4223E1FFE0F505FB
:101610008096980040420F00A0860100102700002D
:10162000FFC99A3B00E1F5051D23FB181B78012B30
:1016300017D10A23FB180021595E0823FB1800224A
:101640009A5E3423FB181B7800932D200123FFF7AB
:101650000FF90A23FB181B880A339AB20A23FB18D6
:101660001A801F23FB181E22BA181278013A1A702A
:101670001EE00A23FB180021595E0823FB180022F4
:101680009A5E3423FB181B78009330200123FFF768
:10169000EFF80A23FB181B880A339AB20A23FB18B7
:1016A0001A801F23FB181A781F23FB1801321A70A7
:1016B0001F23FA18FB1D12781B789A42D9D31F23D7
:1016C000FB1800221A7024E01F23FB181B7810223D
:1016D000BA18D35C98B20A23FB180021595E08237C
:1016E000FB1800229A5E3423FB181B780093012319
:1016F000FFF7BEF80A23FB181B880A339AB20A23A5
:10170000FB181A801F23FB181A781F23FB180132BD
:101710001A701F23FA181E23FB1812781B789A429E
:10172000D2D393E00A23FB1800229A5E1E23FB18F3
:101730001B78191C1B01CB1A80339A4205DC082345
:10174000FB1800229B5E282B02DD01235B4281E017
:101750001D23FB181B78012B17D10A23FB1800212E
:10176000595E0823FB1800229A5E3423FB181B786D
:1017700000932D200223FFF77BF80A23FB181B8818
:101780000F339AB20A23FB181A801F23FB181E225C
:10179000BA181278013A1A701EE00A23FB180021C9
:1017A000595E0823FB1800229A5E3423FB181B782D
:1017B000009330200223FFF75BF80A23FB181B88F5
:1017C0000F339AB20A23FB181A801F23FB181A78CA
:1017D0001F23FB1801321A701F23FA18FB1D127801
:1017E0001B789A42D9D31F23FB1800221A7024E0D9
:1017F0001F23FB181B781022BA18D35C98B20A2357
:10180000FB180021595E0823FB1800229A5E34233E
:10181000FB181B7800930223FFF72AF80A23FB1812
:101820001B880F339AB20A23FB181A801F23FB1858
:101830001A781F23FB1801321A701F23FA181E236F
:10184000FB1812781B789A42D2D3C0460A23FB18A1
:1018500000229B5E181CBD4609B090BD90B58BB0B0
:1018600002AFF8600C1C101C191C0A23FB18221C68
:101870001A800823FB18021C1A80FB1D0A1C1A7010
:101880001B23FB1800221A70F868002100F00AFEE2
:10189000031E09D01A23FB1801221A70FB6880224C
:1018A00012065340FB6003E01A23FB1800221A7053
:1018B000F86801F089F9031C7B611A23FB181B7877
:1018C000002B19D07B6958420A23FB180021595E6E
:1018D0000823FB1800229A5E3023FB181B78009324
:1018E0003423FB181B7801930023FFF793FA021CA3
:1018F0001B23FB181A7017E078690A23FB180021D4
:10190000595E0823FB1800229A5E3023FB181B78CF
:1019100000933423FB181B7801930023FFF77AFA16
:10192000021C1B23FB181A70FB1D1B78002B00D117
:101930007AE0786901F068F9031CF868191C00F076
:10194000C5FF031C3B61FB1D1B78052B3BD89A0090
:10195000394BD3181B689F463869384900F084FE1C
:10196000031C181C01F030F9031CFB612BE03869E3
:10197000334900F079FE031C181C01F025F9031C03
:10198000FB6120E038692F4900F06EFE031C181C33
:1019900001F01AF9031CFB6115E038692A4900F0CF
:1019A00063FE031C181C01F00FF9031CFB610AE025
:1019B0003869264900F058FE031C181C01F004F990
:1019C000031CFB61C0461B23FB181B789BB219B29A
:1019D0000823FB1800229A5E3023FB181C7834235E
:1019E000FB181B7800932E20231CFEF741FF021CDE
:1019F0001B23FB181A701B23FB181B789BB2F8697A
:101A000019B20823FB1800229A5E3023FB181B78BA
:101A100000933423FB181B7801930023FFF7FAF996
:101A2000021C1B23FB181A701B23FB181B78181CA5
:101A3000BD4609B090BDC046C0300008000020413E
:101A40000000C84200007A4400401C460050C347D2
:101A500080B586B000AF7860396000237B610023D9
:101A60003B610023FB6000237B617CE07B690122FA
:101A70009A40131C3B613B681B683A691340FB604A
:101A8000FA683B699A426BD13B681B79012B03D002
:101A90003B681B79022B34D17B689B687A695200C2
:101AA000111C03228A40D2431A407B689A607B68EB
:101AB0009A683B685B79191C7B695B0099400B1C39
:101AC0001A437B689A607B689B889BB27A6992B262
:101AD000111C01228A4092B2D24392B213409AB2B0
:101AE0007B689A807B689B889AB23B689B79191CBB
:101AF0007B699BB299400B1C9BB213439AB27B68E3
:101B00009A807B681B687A695200111C03228A4004
:101B1000D2431A407B681A607B681A683B681B795D
:101B2000191C7B695B0099400B1C1A437B681A6087
:101B30007B68DB687A6992B25200032191400A1CEB
:101B4000D2431A407B68DA607B68DA683B68DB79ED
:101B5000191C7B695B0099400B1C1A437B68DA6097
:101B60007B6901337B617B690F2B00D87EE7BD4623
:101B700006B080BD80B582B000AF78600A1CBB1C87
:101B80001A80BB1C1A887B689A61BD4602B080BD72
:101B900080B582B000AF78600A1CBB1C1A807B68DD
:101BA000BA1C12881A85BD4602B080BD80B582B0CD
:101BB00000AF7860081C111CBB1C021C1A807B1C27
:101BC0000A1C1A707B1C1B78002B04D0BB1C1A88C3
:101BD0007B689A6103E07B68BA1C12881A85BD464F
:101BE00002B080BD80B584B000AF7860081C111CC5
:101BF000BB1C021C1A807B1C0A1C1A700023FB6091
:101C00000023BB607B1C1B78BA1C128807210A408A
:101C100092009340FB60BB1C1B88DB089BB2181C26
:101C2000BB1C1B88DB089BB21A1C7B680832920025
:101C3000D358BA1C128807210A409200111C0F22A7
:101C40008A40D2431A40111C7B68021C0832920061
:101C5000D150BB1C1B88DB089BB21A1C7B68083266
:101C60009200D258FB681343BB60BB1C1B88DB0887
:101C70009BB21A1C7B6808329200B968D150BD46ED
:101C800004B080BD80B500AF1B4B1B4A1268012118
:101C90000A431A60184B184A526818490A405A6099
:101CA000154B154A126816490A401A60124B124A1F
:101CB000126814490A401A600F4B0F4A52681249C1
:101CC0000A405A600C4B0C4AD26A0F218A43DA62EE
:101CD000094B094A126B0D490A401A63064B064A22
:101CE000526B01218A435A63034B00229A6000F031
:101CF0000FF8BD4680BDC046001002400CB8FFF88A
:101D0000FFFFF6FEFFFFFBFFFFFFC0FFACFEFFFF84
:101D100080B582B000AF00237B6000233B60374B6F
:101D2000364A1268802149020A431A60334B1A6806
:101D300080239B0213403B607B6801337B603B68E0
:101D4000002B04D17A68A023DB019A42EED12B4B01
:101D50001A6880239B02134002D001233B6001E0FC
:101D600000233B603B68012B44D1254B11221A60B4
:101D7000224B224A52685A60204B204A52685A60CD
:101D80001E4B1E4A52681F490A405A601B4B1B4A91
:101D90005268A42189030A435A60184B174AD26A31
:101DA0000F218A43DA62154B144AD26A01210A4391
:101DB000DA62124B114A1268802149040A431A6000
:101DC000C0460E4B1A6880239B041340F9D00B4B7E
:101DD0000A4A526803218A435A60084B074A5268EC
:101DE00002210A435A60C046044B5B680C22134030
:101DF000082BF9D1BD4602B080BDC046001002409C
:101E000000200240FFFFC0FF80B500AF8F4B1B7862
:101E1000012B65D18D4B00221A7080239B02181C68
:101E20000121FEF74FF980235B01181C0121FEF709
:101E300067F9874B07221A60854B01221A71844B80
:101E400000229A71824B0122DA71814B03225A716E
:101E50009023DA057E4B101C191CFFF7F9FD7C4B13
:101E6000A0221A607A4B02221A719023DA05784B6D
:101E7000101C191CFFF7ECFD9023DB05181C052135
:101E80000022FFF7AFFE9023DB05181C072100227C
:101E9000FFF7A8FE6F4B10229A816E4B00221A8129
:101EA0006C4B0022DA806B4BE022D2009A80694BA7
:101EB000694A1A80674B0022DA81664B82225200FF
:101EC0005A80644B802292005A81644A614B101CF4
:101ED000191CFEF72BFB614B181C0121FEF7A8FB18
:101EE000642000F035F99023DB05181CA721FFF7CB
:101EF0004FFE012000F02CF99023DB05181C012176
:101F0000FFF738FE012000F023F99023DB05181CB1
:101F10000121FFF73DFE012000F01AF99023DB05B7
:101F2000181C0721FFF726FEA8200121012200F03E
:101F300097F83F200121012200F092F8D3200121DF
:101F4000012200F08DF800200121012200F088F824
:101F500040200121012200F083F8A020012101226C
:101F600000F07EF8DA200121012200F079F8122039
:101F70000121012200F074F8C0200121012200F0AB
:101F80006FF881200121012200F06AF87F200121F1
:101F9000012200F065F820200121012200F060F804
:101FA00000200121012200F05BF821200121012203
:101FB00000F056F800200121012200F051F87F20A6
:101FC0000121012200F04CF822200121012200F021
:101FD00047F800200121012200F042F807200121EA
:101FE000012200F03DF8A6200121012200F038F87E
:101FF000DB200121012200F033F800200121012221
:1020000000F02EF8A4200121012200F029F8D520AB
:102010000121012200F024F880200121012200F09A
:102020001FF88D200121012200F01AF8142001214F
:10203000012200F015F8AF200121012200F010F874
:10204000FEF77EFBFEF74EFBBD4680BD1400002070
:10205000200000202804002000C0FFFF00300140C5
:1020600090B583B000AF041C081C111CFB1D221C82
:102070001A70BB1D021C1A707B1D0A1C1A70BB1D36
:102080001B78012B07D19023DB05181C02210022AD
:10209000FFF78CFD06E09023DB05181C02210122CE
:1020A000FFF784FD7B1D1B78002B05D09023DB05FB
:1020B000181C0421FFF76CFD0E4AFB1D1B78101C39
:1020C000191CFEF7D5FAC0460A4B181C8021FEF7F2
:1020D000E5FA031E012BF7D07B1D1B78002B05D0E2
:1020E0009023DB05181C0421FFF744FDBD4603B017
:1020F00090BDC0460030014080B582B000AF021CE8
:10210000FB1D1A70FB1D1B78002B0FD1AE20012187
:102110000122FFF7A5FF8D2001210122FFF7A0FF7B
:10212000102001210122FFF79BFF0EE08D200121ED
:102130000122FFF795FF142001210122FFF790FFF4
:10214000AF2001210122FFF78BFFBD4602B080BD09
:1021500080B584B000AF7860074B1B68FB6000E07F
:10216000C046054B1A68FB68D21A7B689A42F7D3BF
:10217000BD4604B080BDC0461800002000224308C0
:102180008B4274D303098B425FD3030A8B4244D33F
:10219000030B8B4228D3030C8B420DD3FF22090281
:1021A00012BA030C8B4202D31212090265D0030B40
:1021B0008B4219D300E0090AC30B8B4201D3CB0336
:1021C000C01A5241830B8B4201D38B03C01A524178
:1021D000430B8B4201D34B03C01A5241030B8B427A
:1021E00001D30B03C01A5241C30A8B4201D3CB0265
:1021F000C01A5241830A8B4201D38B02C01A52414A
:10220000430A8B4201D34B02C01A5241030A8B424C
:1022100001D30B02C01A5241CDD2C3098B4201D364
:10222000CB01C01A524183098B4201D38B01C01AE2
:10223000524143098B4201D34B01C01A5241030959
:102240008B4201D30B01C01A5241C3088B4201D308
:10225000CB00C01A524183088B4201D38B00C01AB5
:10226000524143088B4201D34B00C01A5241411ADC
:1022700000D20146524110467047FFE701B50020E9
:1022800000F0FCF802BDC0460029F7D003B5FFF707
:1022900075FF0EBC4243891A1847C04603460B43DC
:1022A0007FD4002243088B4274D303098B425FD34F
:1022B000030A8B4244D3030B8B4228D3030C8B427B
:1022C0000DD3FF22090212BA030C8B4202D3121261
:1022D000090265D0030B8B4219D300E0090AC30B36
:1022E0008B4201D3CB03C01A5241830B8B4201D3E3
:1022F0008B03C01A5241430B8B4201D34B03C01ACC
:102300005241030B8B4201D30B03C01A5241C30A43
:102310008B4201D3CB02C01A5241830A8B4201D3B4
:102320008B02C01A5241430A8B4201D34B02C01A9E
:102330005241030A8B4201D30B02C01A5241CDD243
:10234000C3098B4201D3CB01C01A524183098B428E
:1023500001D38B01C01A524143098B4201D34B0177
:10236000C01A524103098B4201D30B01C01A5241DA
:10237000C3088B4201D3CB00C01A524183088B4261
:1023800001D38B00C01A524143088B4201D34B004A
:10239000C01A5241411A00D20146524110467047BC
:1023A0005DE0CA0F00D04942031000D340425340C1
:1023B00000229C4603098B422DD3030A8B4212D381
:1023C000FC22890112BA030A8B420CD389019211B3
:1023D0008B4208D3890192118B4204D389013AD0F0
:1023E000921100E08909C3098B4201D3CB01C01AC5
:1023F000524183098B4201D38B01C01A52414309D8
:102400008B4201D34B01C01A524103098B4201D3C5
:102410000B01C01A5241C3088B4201D3CB00C01A32
:10242000524183088B4201D38B00C01A5241D9D24A
:1024300043088B4201D34B00C01A5241411A00D2CB
:102440000146634652415B10104601D34042002BC7
:1024500000D54942704763465B1000D3404201B546
:10246000002000F00BF802BD0029F8D003B5FFF7FB
:1024700015FF0EBC4243891A1847C0467047C04634
:102480008446081C6146FFE71FB500F0A7F8002846
:1024900001D40021C8421FBD10B500F02BF8404206
:1024A000013010BD10B500F099F8002801DB0020C4
:1024B00010BD012010BDC04610B500F08FF80028F7
:1024C00001DD002010BD012010BDC04610B500F098
:1024D0003BF8002801DC002010BD012010BDC046E3
:1024E00010B500F031F8002801DA002010BD0120FD
:1024F00010BDC046430270B542004C005D0AC30FD8
:102500004802120E460A240EC90FFF2A05D0FF2CDE
:1025100008D00120A2420BD070BD0120002DFBD1BC
:10252000FF2CF6D10120002EF6D10120A242F3D1DA
:10253000B542F1D18B4205D0002AEDD1281C431EB3
:102540009841E9E70020E7E7F0B543024D024A0071
:1025500044005E0A240EC30F6D0A120EC90FFF2C31
:102560000DD0FF2A31D0002C0DD177427741002ABF
:1025700023D1002D21D10020002F0BD107E0002E08
:1025800028D1FF2A21D0002A05D08B4207D05842FB
:1025900001231843F0BD002DF9D08B42F7D19442AE
:1025A000F5DC04DBAE42F2D80020AE42F2D2584253
:1025B000434101205B421843ECE7002FE5D048423D
:1025C0004141012049420843E4E7002D02D1002C9B
:1025D000CBD0DAE702204042DCE7C0464302F0B548
:1025E00042004C005E0AC30F4802120E450A240E38
:1025F000C90FFF2A0FD0FF2C1AD0002A10D1774222
:102600007741002C29D0002F17D0484241410120AA
:10261000494208430BE00220002E08D1FF2C07D0CE
:10262000002C0AD1002D08D1584201231843F0BDD7
:102630000220002DFBD1002AE1D08B42F4D1A2422E
:10264000F2DC04DBAE42EFD80020AE42EFD25842BB
:10265000434101205B421843E9E7002DD3D100201C
:10266000002FE4D1E0E7C046F0B55F4656464D4640
:102670004446F0B445024600C40F83B00F1C6D0AF7
:10268000360EA34645D0FF2E25D080231B041D43C4
:1026900000239A46ED007F3E01937B025B0A984639
:1026A0007800FB0F000E994640D0FF2838D08023D9
:1026B00042461B041343DB00984600237F384A46FA
:1026C000019F30186240411C1F430F2F69D87D4E77
:1026D000BF00F659B746002D45D108230193063BAC
:1026E0009A46DAE793465346022B2FD15B460124E4
:1026F00000251C40FF236D02DB056D0AE4071D4326
:102700002543281C03B03CBC90469946A246AB46E4
:10271000F0BD002D2CD104230193033B9A46BCE766
:1027200043465A4253410322D31AC8E74246012383
:10273000002AC4D0404600F0AFFA4246431F9A40F8
:1027400076235B42181A90460023B8E7032B00D18A
:10275000ADE0012B00D08CE05B4654461C40E4B257
:1027600000230025C7E70C230193093B9A4694E711
:10277000281C00F091FA7626431F9D4000237642E4
:10278000361A01939A4688E780250024ED03FF233B
:10279000B1E74546CB469A46A5E7454693469A4655
:1027A000A1E743462C041B0C9C46230C44462604FC
:1027B0001C1C360C2F0C7443351C66467D4373433A
:1027C0007743EB18260C9E19B54203D980235B0290
:1027D0009C46674424043304240C1B199D016C1E81
:1027E000A5419B0E360C2B43BD19AD011D432B019A
:1027F00004D5012368081D400543081C031C7F33D2
:10280000002B2CDD690704D00F212940042900D0BA
:102810000435290103D52C4B1D40031C8033FE2BAE
:1028200017DD0124FF231440002564E78020C00346
:10283000054209D04346034206D1454605436D0291
:102840006D0A4C46FF2356E705436D026D0AFF23D0
:1028500051E70124AD016D0ADBB214404BE77E2342
:102860005B421B1A1B2B07DD0124002314400025AB
:1028700041E7081C5A46C1E79E30291C8540D940D3
:10288000681E85410D436B0704D00F232B40042B9A
:1028900000D004356B0104D5012401231440002528
:1028A00029E70124AD016D0A1440002323E78023AA
:1028B000DB031D4301245B466D0223401C1C6D0A93
:1028C000FF2318E7D8300008FFFFFFF7F8B54A00EC
:1028D000430244004D02C00F240E061C9B09120E39
:1028E000C90FAD09FF2A00D175E001277940884260
:1028F00050D0A01A002800DC8FE0002A1ED1002D45
:1029000000D075E05A0704D00F221A40042A00D0E4
:10291000043380220120D2041A403040002A32D0F1
:102920000134FF2C00D184E09B015B0AE4B25B021E
:10293000E4055B0A2343C0071843F8BDFF2CE1D030
:102940008022D20415431B287ADD01255B1B5A0126
:102950005DD59B019F09381C00F09EF90538874022
:10296000844269DC001B1F243A1C431C201ADA40F5
:102970008740131C7C1EA74100243B43C2E7131E63
:1029800045D100230020DB08FF2C28D05B025B0A26
:10299000E4B2CCE7A11A00295BDD002A2ED0FF2C7F
:1029A000B0D08022D20415431B2974DC2F1C2022B6
:1029B000CF40511A8D40691E8D413D435B195A012C
:1029C00025D50134FF2C74D001217E4A19401340D3
:1029D0005B080B4396E7002D00D088E785E7002BC6
:1029E00027D08022D20313435B025B0AFF249EE7B9
:1029F00001380028AAD0FF2CA5D183E7002D00D1F3
:102A000080E701390029D9D0FF2CCDD17AE75A07C8
:102A100000D079E701203040B5E7002825D1621CBD
:102A2000D2B2012A55DD5F1B7A012DD5EF1A0E1C9B
:102A300091E7FF2400237AE7624B241A3B4061E7C9
:102A4000291C2022C140101A8540681E85410D4373
:102A50007CE7002946D1621CD1B201292BDDFF2A77
:102A600026D0EB185B08141C4CE7002C15D0FF2A6D
:102A70001AD08024E404404223431B284DDD012367
:102A8000EB1A141C0E1C62E7002F00D063E7002332
:102A90000020002477E7012590E7002B39D0C043C0
:102AA0000028EDD0FF2AE8D12B1CFF240E1C29E7BB
:102AB000FF24002367E7002C5AD1002B7FD0002D84
:102AC00000D11FE75B195A01A1D53E4A01341340DA
:102AD00018E7002C15D1002B2FD1002D5ED02B1C18
:102AE0000E1C0FE7002C21D1002B54D0C943002924
:102AF00004D0FF2A4CD01B2958DD01235B19141C7C
:102B00005DE7002B23D1002D4BD02B1C0E1CFF2486
:102B1000F8E62B1C141C0E1CF4E61E1C2024C640D8
:102B2000201A8340581E83413343A9E7FF2A2FD040
:102B30008024E40449422343DDE7002D00D1E1E68F
:102B40005A1B500100D41AE7EB1A0E1CDAE6FF24D8
:102B5000002D00D1D6E68022DB08D203134204D038
:102B6000ED08154201D12B1C0E1CDB00FF24C9E629
:102B7000002B0DD0FF24002D00D1C3E68022DB08FE
:102B8000D2031342F1D0ED081542EED12B1CECE735
:102B90002B1CFF24B6E62B1C141CB3E6231C0020C0
:102BA000F1E6802300209B04FF24ECE61F1C202478
:102BB000CF40611A8B40591E8B413B439EE72B1C33
:102BC000A0E6C046FFFFFFFB4202510A4200C30FCE
:102BD000120E00207E2A0DDD9D2A0CDC80200004D0
:102BE0000143952A0ADC9620821AD1400A1C5842D9
:102BF0004240D0187047034A9818FBE7963A914034
:102C00000A1CF4E7FFFFFF7F70B5041E39D0C50F23
:102C100000D04442201C00F03FF89E23261C1B1AC3
:102C2000962B07DC082801DD083884406402640A1A
:102C3000D8B21EE0992B0ADD0522211C121AD140C0
:102C40000A1C011C1B318E40711E8E411643052843
:102C500001DD421F96400F4C3440720704D00F2212
:102C60001640042E00D0043462010ED4A401640A7C
:102C7000D8B26402C005640AED0704432C43201C4B
:102C800070BD002500200024F3E7024B1C409F2369
:102C90001B1AEBE7FFFFFFFB1C2101231B049842DB
:102CA00001D3000C10391B0A984201D3000A0839DD
:102CB0001B09984201D30009043902A2105C401894
:102CC0007047C04604030202010101010000000038
:102CD0000000000070B583073FD0541E002A3BD08F
:102CE000CEB2031C032503E0621E002C34D0141C5A
:102CF00001335A1E16702B42F6D1032C24D9FF251E
:102D00000D402A0215432A0415430F2C11D9261C05
:102D1000103E3609013636011A1C9B1915605560A4
:102D20009560D56010329342F8D10F221440032CE5
:102D30000AD9261FB6080136B6001A1C9B1920C2F4
:102D40009342FCD103221440002C05D0C9B21C19B7
:102D500019700133A342FBD170BD141C031CCCE7D6
:102D600010B5830727D00378002B26D0031C03213E
:102D700002E01A78002A1CD001330B42F9D11968FD
:102D80000F4A104C8A188A4322420FD10433196823
:102D90000B4A8A188A43224208D104331968084A28
:102DA0008A188A432242F1D000E001331A78002ABF
:102DB000FBD1181A10BD031CE1E70020FAE7C0465A
:102DC000FFFEFEFE8080808054696D653A20000021
:102DD000446174653A200000000000000000005FBC
:102DE00000000007000700147F147F14242A7F2AA4
:102DF000122313086462364955225000050300006F
:102E0000001C2241000041221C0014083E08140846
:102E1000083E080800503000000808080808006054
:102E200060000020100804023E5149453E00427FE8
:102E3000400042615149462141454B311814127FEF
:102E40001027454545393C4A494930017109050378
:102E50003649494936064949291E003636000000E0
:102E600056360000081422410014141414140041B2
:102E70002214080201510906324979413E7E11119E
:102E8000117E7F494949363E414141227F414122DD
:102E90001C7F494949417F090909013E4149497A55
:102EA0007F0808087F00417F41002040413F017FAB
:102EB000081422417F404040407F020C027F7F0483
:102EC00008107F3E4141413E7F090909063E4151BC
:102ED000215E7F09192946464949493101017F018F
:102EE000013F4040403F1F2040201F3F4038403FAF
:102EF00063140814630708700807615149454300CB
:102F00007F41410002040810200041417F0004027B
:102F1000010204404040404000010204002054549B
:102F200054787F4844443838444444203844444822
:102F30007F3854545418087E0901020C5252523EF4
:102F40007F0804047800447D40002040443D007F19
:102F50001028440000417F40007C041804787C085D
:102F600004047838444444387C14141408081414B5
:102F7000187C7C080404084854545420043F4440FE
:102F8000203C4040207C1C2040201C3C4030403CE9
:102F900044281028440C5050503C4464544C440085
:102FA0000836410000007F0000004136080010088C
:102FB0000810087846414678FF0000000000000035
:102FC000000306090C101316191C1F2225282B2E8E
:102FD000313336393C3F414447494C4E51535558A3
:102FE0005A5C5E60626466686A6B6D6F7071737460
:102FF000757678797A7A7B7C7D7D7E7E7E7F7F7F19
:103000007F7F7F7F7E7E7E7D7D7C7B7A7A797876FE
:1030100075747371706F6D6B6A68666462605E5C14
:103020005A585553514E4C494744413F3C39363329
:10303000312E2B2825221F1C191613100C090603EC
:1030400000FDFAF7F4F0EDEAE7E4E1DEDBD8D5D2F3
:10305000CFCDCAC7C4C1BFBCB9B7B4B2AFADABA8BE
:10306000A6A4A2A09E9C9A9896959391908F8D8CE1
:103070008B8A888786868584838382828281818108
:103080008181818182828283838485868687888A02
:103090008B8C8D8F9091939596989A9C9EA0A2A4CC
:1030A000A6A8ABADAFB2B4B7B9BCBFC1C4C7CACD97
:1030B000CFD2D5D8DBDEE1E4E7EAEDF0F4F7FAFDB4
:1030C000C6190008581900086E190008841900086C
:1030D0009A190008B0190008A22700089A270008CA
:1030E0009A27000892270008E4260008E426000832
:1030F0008827000892270008E4260008882700088F
:10310000E426000892270008E6260008E6260008C4
:08311000E62600082C28000847
:10311800006CDC0200000000000000000102030453
:08312800060708090100000080
:0400000508000000EF
:00000001FF
