:020000040800F2
:1000000000200020E9040008350500083505000837
:1000100000000000000000000000000000000000E0
:10002000000000000000000000000000350500088E
:10003000000000000000000035050008690200080B
:1000400035050008350500083505000835050008A8
:100050003505000835050008350500083505000898
:100060003505000835050008350500083505000888
:100070003505000835050008350500083505000878
:1000800035050008350500080000000035050008AA
:100090003505000835050008350500083505000858
:1000A0003505000835050008350500083505000848
:1000B00035050008000000003505000800000000BC
:1000C0005FF808F180B582B000AF78600A1CFB1CB5
:1000D0001A70FB1C1B78002B06D0084B074A51698D
:1000E0007A680A435A6106E0044B044A5269796807
:1000F000C9430A405A61BD4602B080BD00100240AB
:1001000080B582B000AF78600A1CFB1C1A70FB1C23
:100110001B78002B06D0084B074A91697A680A437E
:100120009A6106E0044B044A92697968C9430A401F
:100130009A61BD4602B080BD00100240B0B582B0E9
:1001400000AF021C3960FB1D1A70FB1D1B787F2B52
:1001500032D93049FB1D1B781A1C0F231340083B72
:1001600098082C4AFB1D1B781C1C0F232340083BBE
:100170009B0806339B00D3185B68FA1D1278141C89
:1001800003222240D200FF24251C95402A1CD24382
:100190001A403B689C01FF231C40FB1D1B781D1C63
:1001A00003232B40DB00251C9D402B1C1A43831D81
:1001B0009B00CB185A6029E0174BFA1D127852B2F7
:1001C00092081549F81D007840B28008C0308000C0
:1001D0004158F81D0078041C03202040C000FF2473
:1001E000251C8540281CC043084039688C01FF212C
:1001F0000C40F91D09780D1C03212940C900251C5C
:100200008D40291C0143C0329200D150BD4602B03E
:10021000B0BDC04600ED00E000E100E080B582B076
:1002200000AF78607A680E4B9A4201D9012312E040
:100230000C4B7A681202120A013A5A6001235B429F
:10024000181C0321FFF77AFF064B00229A60054B2A
:1002500007221A600023181CBD4602B080BDC046AC
:10026000FFFFFF0010E000E080B500AF1E4B1B68F1
:100270005A1C1D4B1A601C4B1B68181CFA23990052
:1002800001F0D2FF0B1C1A1C184B9A4229D1184BB3
:100290001B78DBB20133DAB2154B1A70144B1B78A2
:1002A000DBB23C2B1DD1124B00221A70114B1B7874
:1002B000DBB20133DAB20F4B1A700E4B1B78DBB294
:1002C0003C2B0ED10C4B1B78DBB20133DAB20A4B5C
:1002D0001A70094B1B78DBB2182B02D1064B002297
:1002E0001A70BD4680BDC04618000020E70300001C
:1002F0001E0000201D0000201C00002080B586B0DC
:1003000002AF01F0C7FC714B1B68181CFA2399005F
:1003100001F046FF031C181CFFF780FF01F07CFD75
:10032000012001F0FBFE3223FB60694BBB60FB1D2B
:1003300000221A70674B00220092181C0021002234
:10034000002300F02FFC021CFB1D1A70624B1B786F
:10035000DBB21A1CFB1D1B789BB21BB20021009163
:1003600000210191101C191C0022012300F03EFD08
:10037000021CFB1D1A70FB1D1B789BB21BB20022D6
:1003800000923A20191C0022002300F071FA021C8E
:10039000FB1D1A70514B1B78DBB21A1CFB1D1B781E
:1003A0009BB21BB20021009100210191101C191C6D
:1003B0000022012300F01AFD021CFB1D1A70FB1D18
:1003C0001B789BB21BB2002200923A20191C00221B
:1003D000002300F04DFA021CFB1D1A70404B1B78E5
:1003E000DBB21A1CFB1D1B789BB21BB200210091D3
:1003F00000210191101C191C0022012300F0F6FCC1
:10040000021CFB1D1A70374B00220092181C0021A1
:100410001022002300F0C6FB021CFB1D1A70FB1DFE
:100420001B789BB21BB200220092002201920A208C
:10043000191C1022012300F0D9FC021CFB1D1A70AC
:10044000FB1D1B789BB21BB2002200922F20191CAF
:100450001022002300F00CFA021CFB1D1A70FB1D79
:100460001B789BB21BB200220092002201920B204B
:10047000191C1022012300F0B9FC021CFB1D1A708C
:10048000FB1D1B789BB21BB2002200922F20191C6F
:100490001022002300F0ECF9021CFB1D1A70FB1D5A
:1004A0001B789BB21BB200220092002201920C200A
:1004B000191C1022012300F099FC021CFB1D1A706C
:1004C00000F016F900F042F934E7C04600000020C1
:1004D000DC050000842B00081C0000201D0000200B
:1004E0001E0000208C2B00080C488546002103E0EC
:1004F0000B4B5B58435004310A480B4B42189A424D
:10050000F6D30A4A02E0002313600432084B9A42F1
:10051000F9D301F0BFFBFFF7F1FEFEE7002000205A
:10052000D42E000800000020180000201800002031
:100530003C040020FEE7000080B584B000AF786086
:1005400039603B1C0E3300221A803B1C0E337A6844
:1005500012881A803B1C0E333A1C0E321188C122BD
:1005600092010A401A803B681A883B68DB89134372
:100570009AB23B68DB8813439AB23B681B891343EA
:100580009AB23B685B8913439AB23B689B891343D9
:1005900099B23B1C0E333A1C0E3212880A431A8061
:1005A0007B683A1C0E3212881A803B1C0E337A6824
:1005B00092881A803B1C0E333A1C0E3211881D4A59
:1005C0000A401A803B6899883B1C0E333A1C0E3255
:1005D00012880A431A807B683A1C0E3212889A806D
:1005E0003B681A8A7B681A823B1C0E337A68128831
:1005F0001A803B1C0E333A1C0E32128804218A43A7
:100600001A803B6859883B1C0E333A1C0E32128804
:100610000A431A807B683A1C0E3212881A807B6863
:100620009B8B9AB2044B13409AB27B689A83BD4667
:1006300004B080BDFFF0FFFFFFF7FFFF80B582B081
:1006400000AF78600A1CFB1C1A70FB1C1B78002B87
:1006500008D07B681B889BB2402213439AB27B6808
:100660001A8007E07B681B889BB2402293439AB2B2
:100670007B681A80BD4602B080BDC04680B584B09C
:1006800000AF78600A1CFB1C1A700023FB607B68BB
:10069000FB60FB680C33FB60FB68FA1C12781A7075
:1006A000BD4604B080BDC04680B584B000AF786060
:1006B0000A1CBB1C1A803B1C0F3300221A707B687B
:1006C0001B899BB2BA1C128813409BB2002B04D02A
:1006D0003B1C0F3301221A7003E03B1C0F33002236
:1006E0001A703B1C0F331B78181CBD4604B080BD2C
:1006F00080B582B000AF9023DB05181C042101F007
:1007000055FABB1D00221A800DE0BB1D1B880D4A47
:10071000D35C181C0021002201F0BAFCBB1D1A8812
:10072000BB1D01321A80BB1D1A88074B9A42ECD9B7
:100730009023DB05181C042101F02AFABD4602B003
:1007400080BDC04628000020FF03000080B500AF38
:10075000044A8023DB00101C00211A1C02F002FA5C
:10076000BD4680BD2800002080B584B000AFBB1D11
:1007700018803B1D1980FB1C1A70BB1D00215B5E9D
:100780007F2B0EDCBB1D00229B5E002B09DB3B1D7B
:1007900000215B5E3F2B04DC3B1D00229B5E002B97
:1007A00001DA01235CE03B1D00215B5EDB109BB2A4
:1007B0009BB2DB019AB2BB1D1B88D3189AB23B1CBB
:1007C0000C331A803B1C0C3300215A5E3B1C0F3348
:1007D00025498A5C1A70FB1C1B78002B1AD13B1D23
:1007E00000215A5E214B134004D5013B082252429E
:1007F000134301339BB21BB20122111C99400B1C05
:10080000DAB23B1C0F331B781343DAB23B1C0F33B5
:100810001A701BE03B1D00215A5E144B134004D597
:10082000013B08225242134301339BB21BB2012207
:10083000111C99400B1CDBB2DB43DBB23A1C0F32BC
:1008400012781340DAB23B1C0F331A703B1C0C3386
:1008500000229B5E044A391C0F310978D1540023D1
:10086000181CBD4604B080BD280000200700008091
:1008700090B585B000AF041C081C111C1A1CBB1DD0
:100880001C803B1D1880BB1C19807B1C1A70BB1D73
:10089000BA1D1288203A1A80BA1DBB1D1B88191C6C
:1008A0008900CB1813807B1C1B78012B00D179E0C9
:1008B000022B00D1E9E0002B00D063E13B1C0E339A
:1008C00000221A8068E0BB1D1A883B1C0E331B886F
:1008D000D318B34AD25C3B1C0A331A803B1C0C333E
:1008E00000221A804CE03B1C0A331A883B1C0C3354
:1008F0001B881A41012313401ED03B1D1A883B1C44
:100900000E331B88D3189BB299B2BB1C1A883B1CB0
:100910000C331B88D3189BB29AB23B1C20331B7834
:10092000013B58424341DBB209B212B2081C111C10
:100930001A1CFFF719FF1CE03B1D1A883B1C0E33E5
:100940001B88D3189BB299B2BB1C1A883B1C0C3372
:100950001B88D3189BB29AB23B1C20331B78584299
:100960004341DBB209B212B2081C111C1A1CFFF77A
:10097000FBFE3B1C0C331A883B1C0C3301321A80E3
:100980003B1C0C331B88072BADD93B1C0E331A883C
:100990003B1C0E3301321A803B1C0E331B88042B88
:1009A00091D9EFE03B1C0E3300221A8067E03B1C1C
:1009B0000C3300221A8056E0BB1D1A883B1C0E33F4
:1009C0001B885B089BB2D318754AD35C1A1C3B1C6E
:1009D0000C331B885B089BB21A41012313401ED0C5
:1009E0003B1D1A883B1C0E331B88D3189BB299B24F
:1009F000BB1C1A883B1C0C331B88D3189BB29AB2C1
:100A00003B1C20331B78013B58424341DBB209B207
:100A100012B2081C111C1A1CFFF7A6FE1CE03B1D9D
:100A20001A883B1C0E331B88D3189BB299B2BB1C8F
:100A30001A883B1C0C331B88D3189BB29AB23B1C00
:100A400020331B7858424341DBB209B212B2081C72
:100A5000111C1A1CFFF788FE3B1C0C331A883B1C28
:100A60000C3301321A803B1C0C331B880F2BA3D98B
:100A70003B1C0E331A883B1C0E3301321A803B1C80
:100A80000E331B88092B92D97CE03B1C0E330022CD
:100A90001A8070E03B1C0C3300221A805FE0BB1D03
:100AA0001C883B1C0E331B88181C032101F078FBAB
:100AB000031C9BB2E3183A4AD35C1C1C3B1C0C334E
:100AC0001B88181C032101F06BFB031C9BB2221C2A
:100AD0001A41012313401ED03B1D1A883B1C0E33C4
:100AE0001B88D3189BB299B2BB1C1A883B1C0C33D1
:100AF0001B88D3189BB29AB23B1C20331B78013B56
:100B000058424341DBB209B212B2081C111C1A1C34
:100B1000FFF72AFE1CE03B1D1A883B1C0E331B8886
:100B2000D3189BB299B2BB1C1A883B1C0C331B8890
:100B3000D3189BB29AB23B1C20331B7858424341D6
:100B4000DBB209B212B2081C111C1A1CFFF70CFE12
:100B50003B1C0C331A883B1C0C3301321A803B1CA3
:100B60000C331B88172B9AD93B1C0E331A883B1C5D
:100B70000E3301321A803B1C0E331B880E2B00D81B
:100B800088E7C0463B1D0022995E7B1C1B785A1CDF
:100B9000131C9B009B18CB18181CBD4605B090BDBC
:100BA000942B000890B589B002AFF860081C111CA6
:100BB0001A1C3B1C0A3318803B1C08331980FB1D90
:100BC0001A703B1C16333A1C0A3212881A70FB68E2
:100BD000181C01F0CFFF021C3B1C15331A70FB1DC3
:100BE0001B78012B54D0022B00D19FE0002B00D0AA
:100BF000E8E03B1C0A330022995E3B1C15331A784F
:100C0000131C9B079B1A9B009B1A8033994205DC9F
:100C10003B1C083300241B5F382B02DD01235B42A1
:100C2000DFE03B1C173300221A7028E03B1C17330F
:100C30001B78FA68D3181B78181C3B1C17331B78D9
:100C40009BB21A1C9200D3189AB23B1C0A331B8821
:100C5000D3189BB29BB219B23B1C083300241A5F15
:100C6000FB1D1B783C1C283424780094FFF700FE01
:100C70003B1C17331A783B1C173301321A703A1C8D
:100C800017323B1C153312781B789A42CED399E069
:100C90003B1C0A3300215A5E3B1C15331B780A218A
:100CA00049424B4380339A4205DC3B1C0833002207
:100CB0009B5E302B02DD01235B4292E03B1C17332D
:100CC00000221A7029E03B1C17331B78FA68D318EE
:100CD0001B78181C3B1C17331B789BB21A1C920004
:100CE000D318DB189AB23B1C0A331B88D3189BB26B
:100CF0009BB219B23B1C083300241A5FFB1D1B7802
:100D00003C1C283424780094FFF7B2FD3B1C1733B9
:100D10001A783B1C173301321A703A1C17323B1CED
:100D2000153312781B789A42CDD34BE03B1C0A3323
:100D300000215A5E3B1C15331B78191C1B01CB1A72
:100D400080339A4205DC3B1C083300229B5E282B33
:100D500002DD01235B4244E03B1C173300221A7082
:100D600028E03B1C17331B78FA68D3181B78181C33
:100D70003B1C17331B789BB21A1C1201D31A9AB270
:100D80003B1C0A331B88D3189BB29BB219B23B1C85
:100D9000083300241A5FFB1D1B783C1C2834247880
:100DA0000094FFF765FD3B1C17331A783B1C173383
:100DB00001321A703A1C17323B1C153312781B781B
:100DC0009A42CED33B1C0A330022995E3B1C15335A
:100DD0001878FB1D1B785A1C131C9B009B1843435F
:100DE000CB18181CBD4607B090BDC04680B58AB070
:100DF00002AFF860081C111C1A1C3B1C0A33188037
:100E00003B1C08331980FB1D1A703B1C1E3300224B
:100E10001A703B1C1033181C0021092201F0A2FE9D
:100E20003B1C0A3300201B5E002B03DA02235B42CB
:100E300000F00EFDFB68002B07DAFB685B42FB60ED
:100E40003B1C1D3301221A7006E0FB68002B03DDFA
:100E50003B1C1D3300221A70FB68092B0BDCFB685E
:100E6000DBB23033DAB23B1C10331A703B1C1E333A
:100E700001221A70FAE2FB68632B1CDCFB68181C69
:100E80000A2101F0DBF9031CDBB23033DAB23B1C80
:100E900010331A70FB68181C0A2101F025FA0B1C8C
:100EA000DBB23033DAB23B1C10335A703B1C1E33BA
:100EB00002221A70DAE2FA68D34B9A422DDCFB6800
:100EC000181C642101F0BAF9031CDBB23033DAB22A
:100ED0003B1C10331A70FB68181C0A2101F0AEF994
:100EE000031C181C0A2101F0FFF90B1CDBB2303384
:100EF000DAB23B1C10335A70FB68181C0A2101F04F
:100F0000F3F90B1CDBB23033DAB23B1C10339A70AE
:100F10003B1C1E3303221A70A8E2FA68BB4B9A42AC
:100F20003FDCFB68181CFA23990001F087F9031CC9
:100F3000DBB23033DAB23B1C10331A70FB68181C7A
:100F4000642101F07BF9031C181C0A2101F0CCF983
:100F50000B1CDBB23033DAB23B1C10335A70FB6827
:100F6000181C0A2101F06AF9031C181C0A2101F05F
:100F7000BBF90B1CDBB23033DAB23B1C10339A7076
:100F8000FB68181C0A2101F0AFF90B1CDBB23033EF
:100F9000DAB23B1C1033DA703B1C1E3304221A7089
:100FA00064E2FA689A4B9A4250DCFB68181C994933
:100FB00001F044F9031CDBB23033DAB23B1C1033CE
:100FC0001A70FB68181CFA23990001F037F9031C0A
:100FD000181C0A2101F088F90B1CDBB23033DAB29D
:100FE0003B1C10335A70FB68181C642101F026F971
:100FF000031C181C0A2101F077F90B1CDBB23033FB
:10100000DAB23B1C10339A70FB68181C0A2101F0FD
:1010100015F9031C181C0A2101F066F90B1CDBB240
:101020003033DAB23B1C1033DA70FB68181C0A212B
:1010300001F05AF90B1CDBB23033DAB23B1C10332F
:101040001A713B1C1E3305221A700FE2FA68724BAC
:101050009A4261DCFB68181C704901F0EFF8031C30
:10106000DBB23033DAB23B1C10331A70FB68181C49
:10107000684901F0E3F8031C181C0A2101F034F957
:101080000B1CDBB23033DAB23B1C10335A70FB68F6
:10109000181CFA23990001F0D1F8031C181C0A212E
:1010A00001F022F90B1CDBB23033DAB23B1C1033F7
:1010B0009A70FB68181C642101F0C0F8031C181C0E
:1010C0000A2101F011F90B1CDBB23033DAB23B1C00
:1010D0001033DA70FB68181C0A2101F0AFF8031C0A
:1010E000181C0A2101F000F90B1CDBB23033DAB214
:1010F0003B1C10331A71FB68181C0A2101F0F4F82C
:101100000B1CDBB23033DAB23B1C10335A713B1C80
:101110001E3306221A70A9E1FA68414B9A4200DD9B
:1011200082E0FB68181C3F4901F088F8031CDBB221
:101130003033DAB23B1C10331A70FB68181C374985
:1011400001F07CF8031C181C0A2101F0CDF80B1CDF
:10115000DBB23033DAB23B1C10335A70FB68181C18
:101160002C4901F06BF8031C181C0A2101F0BCF893
:101170000B1CDBB23033DAB23B1C10339A70FB68C5
:10118000181CFA23990001F059F8031C181C0A21B5
:1011900001F0AAF80B1CDBB23033DAB23B1C10337F
:1011A000DA70FB68181C642101F048F8031C181C55
:1011B0000A2101F099F80B1CDBB23033DAB23B1C88
:1011C00010331A71FB68181C0A2101F037F8031C50
:1011D000181C0A2101F088F80B1CDBB23033DAB29C
:1011E0003B1C10335A71FB68181C0A2101F07CF873
:1011F0000B1CDBB23033DAB23B1C10339A713B1C50
:101200001E3307221A7031E1E70300000F270000A8
:101210009F860100102700003F420F00A0860100BA
:101220007F96980040420F00FA68F04B9A4200DD2A
:1012300083E0FB68181CEE4901F000F8031CDBB2E8
:101240003033DAB23B1C10331A70FB68181CE949C2
:1012500000F0F4FF031C181C0A2101F045F80B1CD8
:10126000DBB23033DAB23B1C10335A70FB68181C07
:10127000E14900F0E3FF031C181C0A2101F034F8D7
:101280000B1CDBB23033DAB23B1C10339A70FB68B4
:10129000181CDA4900F0D2FF031C181C0A2101F0C7
:1012A00023F80B1CDBB23033DAB23B1C1033DA709C
:1012B000FB68181CFA23990000F0C0FF031C181CDF
:1012C0000A2101F011F80B1CDBB23033DAB23B1CFF
:1012D00010331A71FB68181C642100F0AFFF031C67
:1012E000181C0A2101F000F80B1CDBB23033DAB213
:1012F0003B1C10335A71FB68181C0A2100F09EFF3A
:10130000031C181C0A2100F0EFFF0B1CDBB230336A
:10131000DAB23B1C10339A71FB68181C0A2100F0EA
:10132000E3FF0B1CDBB23033DAB23B1C1033DA7153
:101330003B1C1E3308221A7098E0FA68B04B9A42A0
:1013400000DD93E0FB68181CAE4900F077FF031C3A
:10135000DBB23033DAB23B1C10331A70FB68181C56
:10136000A34900F06BFF031C181C0A2100F0BCFF0E
:101370000B1CDBB23033DAB23B1C10335A70FB6803
:10138000181C9C4900F05AFF031C181C0A2100F08D
:10139000ABFF0B1CDBB23033DAB23B1C10339A705C
:1013A000FB68181C944900F049FF031C181C0A2113
:1013B00000F09AFF0B1CDBB23033DAB23B1C103367
:1013C000DA70FB68181C8D4900F038FF031C181CEC
:1013D0000A2100F089FF0B1CDBB23033DAB23B1C70
:1013E00010331A71FB68181CFA23990000F026FFCD
:1013F000031C181C0A2100F077FF0B1CDBB23033F2
:10140000DAB23B1C10335A71FB68181C642100F0DF
:1014100015FF031C181C0A2100F066FF0B1CDBB231
:101420003033DAB23B1C10339A71FB68181C0A2166
:1014300000F004FF031C181C0A2100F055FF0B1CD0
:10144000DBB23033DAB23B1C1033DA71FB68181CA4
:101450000A2100F049FF0B1CDBB23033DAB23B1C2F
:1014600010331A723B1C1E3309221A703B1C28339E
:101470001B78012B00D1A2E0022B00D149E1002B07
:1014800000D0E1E13B1C0A330022995E3B1C1E3375
:101490001A78131C9B079B1A9B009B1A8033994256
:1014A00005DC3B1C083300201B5E382B02DD0123CA
:1014B0005B42CDE13B1C1D331B78012B19D13B1C3A
:1014C0000A3300215A5E3B1C083300201B5E391C86
:1014D0002C31097800912D20111C1A1C0023FFF7D4
:1014E000C7F93B1C0A331B8805339AB23B1C0A33ED
:1014F0001A803B1C1F333A1C1E321278013A1A70B4
:1015000020E03B1C0A3300215A5E3B1C08330020BC
:101510001B5E391C2C31097800913020111C1A1CDB
:101520000023FFF7A5F93B1C0A331B8805339AB249
:101530003B1C0A331A803B1C1F331A783B1C1F3399
:1015400001321A703A1C1F32FB1D12781B789A4226
:10155000D7D33B1C1F3300221A7027E03B1C1F33DC
:101560001B783A1C1032D35C191C3B1C0A33002038
:101570001A5E3B1C083300201B5E381C2C300078A0
:101580000090081C111C1A1C0023FFF771F93B1C6A
:101590000A331B8805339AB23B1C0A331A803B1C62
:1015A0001F331A783B1C1F3301321A703A1C1F324A
:1015B0003B1C1E3312781B789A42CFD344E13B1C6C
:1015C0000A3300215A5E3B1C1E331B780A21494214
:1015D0004B4380339A4205DC3B1C083300229B5E60
:1015E000302B11DD01235B4232E1C046FFE0F505FF
:1015F0008096980040420F00A0860100102700004E
:10160000FFC99A3B00E1F5053B1C1D331B78012BFC
:1016100019D13B1C0A3300201A5E3B1C0833002101
:101620005B5E391C2C31097800912D20111C1A1C8D
:101630000123FFF71DF93B1C0A331B880A339AB2BA
:101640003B1C0A331A803B1C1F333A1C1E32127893
:10165000013A1A7020E03B1C0A3300201A5E3B1C42
:10166000083300215B5E391C2C3109780091302051
:10167000111C1A1C0123FFF7FBF83B1C0A331B88C3
:101680000A339AB23B1C0A331A803B1C1F331A7868
:101690003B1C1F3301321A703A1C1F32FB1D12789B
:1016A0001B789A42D7D33B1C1F3300221A7027E0C5
:1016B0003B1C1F331B783A1C1032D35C191C3B1C9B
:1016C0000A3300201A5E3B1C083300201B5E381CC6
:1016D0002C3000780090081C111C1A1C0123FFF705
:1016E000C7F83B1C0A331B880A339AB23B1C0A33E7
:1016F0001A803B1C1F331A783B1C1F3301321A70AF
:101700003A1C1F323B1C1E3312781B789A42CFD3EF
:101710009AE03B1C0A3300215A5E3B1C1E331B78A7
:10172000191C1B01CB1A80339A4205DC3B1C083381
:1017300000229B5E282B02DD01235B4288E03B1CDC
:101740001D331B78012B19D13B1C0A3300201A5E74
:101750003B1C083300215B5E391C2C310978009159
:101760002D20111C1A1C0223FFF782F83B1C0A33A0
:101770001B880F339AB23B1C0A331A803B1C1F3361
:101780003A1C1E321278013A1A7020E03B1C0A33D0
:1017900000201A5E3B1C083300215B5E391C2C3193
:1017A000097800913020111C1A1C0223FFF760F801
:1017B0003B1C0A331B880F339AB23B1C0A331A8036
:1017C0003B1C1F331A783B1C1F3301321A703A1C22
:1017D0001F32FB1D12781B789A42D7D33B1C1F3354
:1017E00000221A7027E03B1C1F331B783A1C103272
:1017F000D35C191C3B1C0A3300201A5E3B1C0833C7
:1018000000201B5E381C2C3000780090081C111C36
:101810001A1C0223FFF72CF83B1C0A331B880F33DA
:101820009AB23B1C0A331A803B1C1F331A783B1CAC
:101830001F3301321A703A1C1F323B1C1E331278C0
:101840001B789A42CFD3C0463B1C0A3300215B5E13
:10185000181CBD4608B080BD80B58AB002AFF860E4
:10186000081C111C1A1C3B1C0A3318803B1C083333
:101870001980FB1D1A703B1C1B3300221A70F8687C
:10188000002100F04FFD031C002B09D03B1C1A3334
:1018900001221A70FB68802212065340FB6003E0AD
:1018A0003B1C1A3300221A70F86801F0C1F8031CBF
:1018B0007B613B1C1A331B78002B1CD07B6959427F
:1018C0003B1C0A3300201A5E3B1C083300201B5EC1
:1018D000381C283000780090381C2C30007801909B
:1018E000081C111C1A1C0023FFF780FA021C3B1C69
:1018F0001B331A701AE079693B1C0A3300201A5E08
:101900003B1C083300201B5E381C283000780090F8
:10191000381C2C3000780190081C111C1A1C002364
:10192000FFF764FA021C3B1C1B331A70FB1D1B786B
:10193000002B00D17CE0786901F09AF8031CF8686C
:10194000191C00F0FFFE031C3B61FB1D1B78052BDF
:101950003BD89A003A4BD3181B689F4638693949DF
:1019600000F0C6FD031C181C01F062F8031CFB61AB
:101970002BE03869344900F0BBFD031C181C01F052
:1019800057F8031CFB6120E03869304900F0B0FDD6
:10199000031C181C01F04CF8031CFB6115E03869AE
:1019A0002B4900F0A5FD031C181C01F041F8031C95
:1019B000FB610AE03869274900F09AFD031C181CF6
:1019C00001F036F8031CFB61C0463B1C1B331B783F
:1019D0009BB219B23B1C083300201A5E3B1C283313
:1019E0001B78381C2C30007800902E20FEF740FF2A
:1019F000021C3B1C1B331A703B1C1B331B789BB215
:101A0000F9691AB23B1C083300201B5E381C2830D1
:101A100000780090381C2C3000780190081C111CB4
:101A20001A1C0023FFF7E2F9021C3B1C1B331A703F
:101A30003B1C1B331B78181CBD4608B080BDC0463C
:101A40007C2E0008000020410000C84200007A44BB
:101A500000401C460050C34780B586B000AF786098
:101A6000396000237B6100233B610023FB6000237E
:101A70007B6185E07B690122101C9840031C3B615F
:101A80003B681B683A691340FB60FA683B699A42FD
:101A900073D13B681B79012B03D03B681B79022B68
:101AA00038D17B689B687A6952000321081C9040FA
:101AB000021CD2431A407B689A607B689A683B6834
:101AC0005B79191C7B695B00081C9840031C1A4356
:101AD0007B689A607B689B889BB27A6992B201218D
:101AE000081C9040021C92B2D24392B213409AB2A8
:101AF0007B689A807B689B889AB23B689B79191CAB
:101B00007B699BB2081C9840031C9BB213439AB29A
:101B10007B689A807B681B687A6952000321081CE5
:101B20009040021CD2431A407B681A607B681A6896
:101B30003B681B79191C7B695B00081C9840031CDF
:101B40001A437B681A607B68DB687A6992B252003C
:101B50000321081C9040021CD2431A407B68DA60C3
:101B60007B68DA683B68DB79191C7B695B00081CC1
:101B70009840031C1A437B68DA607B6901337B6100
:101B80007B690F2B00D875E7BD4606B080BDC04607
:101B900080B582B000AF78600A1CBB1C1A80BB1CE9
:101BA0001A887B689A61BD4602B080BD80B582B05C
:101BB00000AF78600A1CBB1C1A807B68BA1C1288B4
:101BC0001A85BD4602B080BD80B582B000AF786096
:101BD000BB1C19807B1C1A707B1C1B78002B04D04B
:101BE000BB1C1A887B689A6103E07B68BA1C128868
:101BF0001A85BD4602B080BD90B585B000AF786053
:101C0000BB1C19807B1C1A700023FB600023BB6087
:101C10007B1C1A78BB1C198807230B409B00111CE6
:101C200099400B1CFB60BB1C1B88DB089BB21A1C79
:101C3000BB1C1B88DB089BB2191C7B680831890020
:101C4000CB58B91C08880721014089000F20041CCB
:101C50008C40211CC94319407B6808329200D15046
:101C6000BB1C1B88DB089BB21A1C7B6808329200E5
:101C7000D258FB681343BB60BB1C1B88DB089BB2BC
:101C80001A1C7B6808329200B968D150BD4605B075
:101C900090BDC04680B500AF1B4B1B4A12680121A6
:101CA0000A431A60184B184A5168184A0A405A6089
:101CB000154B154A1168164A0A401A60124B124A0F
:101CC0001168144A0A401A600F4B0F4A5168124AB1
:101CD0000A405A600C4B0C4AD26A0F218A43DA62DE
:101CE000094B094A116B0D4A0A401A63064B064A12
:101CF000526B01218A435A63034B00229A6000F021
:101D00000FF8BD4680BDC046001002400CB8FFF879
:101D1000FFFFF6FEFFFFFBFFFFFFC0FFACFEFFFF74
:101D200080B582B000AF00237B6000233B60374B5F
:101D3000364A1268802149020A431A60334B1A68F6
:101D400080239B0213403B607B6801337B603B68D0
:101D5000002B04D17A68A023DB019A42EED12B4BF1
:101D60001A6880239B02134002D001233B6001E0EC
:101D700000233B603B68012B44D1254B11221A60A4
:101D8000224B224A52685A60204B204A52685A60BD
:101D90001E4B1E4A51681F4A0A405A601B4B1B4A81
:101DA0005268A42189030A435A60184B174AD26A21
:101DB0000F218A43DA62154B144AD26A01210A4381
:101DC000DA62124B114A1268802149040A431A60F0
:101DD000C0460E4B1A6880239B041340F9D00B4B6E
:101DE0000A4A526803218A435A60084B074A5268DC
:101DF00002210A435A60C046044B5A680C23134020
:101E0000082BF9D1BD4602B080BDC046001002408B
:101E100000200240FFFFC0FF80B500AF974B1B784A
:101E2000012B65D1954B00221A7080239B02181C50
:101E30000121FEF747F980235B01181C0121FEF701
:101E40005FF98F4B07221A608D4B01221A718C4B60
:101E500000229A718A4B0122DA71894B03225A714E
:101E60009023DA05864B101C191CFFF7F5FD844BF7
:101E7000A0221A60824B02221A719023DA05804B4D
:101E8000101C191CFFF7E8FD9023DB05181C052129
:101E90000022FFF7B1FE9023DB05181C072100226A
:101EA000FFF7AAFE774B00229A81764B00221A8117
:101EB000744B0022DA80734BE022D2009A80714B7F
:101EC000714A1A806F4B0022DA816E4B82225200D7
:101ED0005A806C4B802292005A816C4A694B101CCC
:101EE000191CFEF729FB694B181C0121FEF7A6FB04
:101EF0009023DB05181C0821FFF758FE642000F032
:101F000039F99023DB05181CA721FFF74FFE0120AC
:101F100000F030F99023DB05181C0121FFF738FE93
:101F2000012000F027F99023DB05181C0121FFF7A1
:101F30003DFE012000F01EF99023DB05181C07214F
:101F4000FFF726FEA8200121012200F0A1F83F2082
:101F50000121012200F09CF8D3200121012200F090
:101F600097F800200121012200F092F84020012181
:101F7000012200F08DF8A0200121012200F088F854
:101F8000DA200121012200F083F812200121012230
:101F900000F07EF8C0200121012200F079F88120B4
:101FA0000121012200F074F8A0200121012200F09B
:101FB0006FF820200121012200F06AF800200121A1
:101FC000012200F065F821200121012200F060F8D3
:101FD00000200121012200F05BF87F200121012275
:101FE00000F056F822200121012200F051F80020D3
:101FF0000121012200F04CF807200121012200F00C
:1020000047F8D9200121012200F042F8FF200121E8
:10201000012200F03DF8A6200121012200F038F84D
:10202000DB200121012200F033F8002001210122F0
:1020300000F02EF8A4200121012200F029F8D5207B
:102040000121012200F024F800200121012200F0EA
:102050001FF88D200121012200F01AF8142001211F
:10206000012200F015F8AF200121012200F010F844
:10207000FEF76CFBFEF73CFBBD4680BD1400002064
:10208000200000202804002000C0FFFF0030014095
:1020900080B582B000AFFB1D1870BB1D19707B1D91
:1020A0001A70BB1D1B78012B07D19023DB05181C70
:1020B00002210022FFF788FD06E09023DB05181CB3
:1020C00002210122FFF780FD7B1D1B78002B05D02C
:1020D0009023DB05181C0421FFF768FD0E4AFB1D49
:1020E0001B78101C191CFEF7C9FAC0460A4B181CB5
:1020F0008021FEF7D9FA031C012BF7D07B1D1B783A
:10210000002B05D09023DB05181C0421FFF740FDB0
:10211000BD4602B080BDC0460030014080B582B0EF
:1021200000AF021CFB1D1A70FB1D1B78002B0FD18A
:10213000AE2001210122FFF7ABFF8D2001210122FA
:10214000FFF7A6FF102001210122FFF7A1FF0EE0FB
:102150008D2001210122FFF79BFF14200121012284
:10216000FFF796FFAF2001210122FFF791FFBD4647
:1021700002B080BD80B584B000AF7860074B1B68AB
:10218000FB6000E0C046054B1A68FB68D21A7B680A
:102190009A42F7D3BD4604B080BDC0461800002067
:1021A000002934D00123002210B488422CD301240A
:1021B0002407A14204D2814202D209011B01F8E79F
:1021C000E400A14204D2814202D249005B00F8E758
:1021D000884201D3401A1A434C08A04202D3001B84
:1021E0005C0822438C08A04202D3001B9C082243B7
:1021F000CC08A04202D3001BDC082243002803D0F5
:102200001B0901D00909E3E7101C10BC7047002826
:1022100001D00020C04307B4024802A14018029038
:1022200003BDC046D90000000029F0D003B5FFF778
:10223000B9FF0EBC4243891A1847C046002941D055
:1022400010B4041C4C40A44601230022002900D5F0
:102250004942002800D5404288422CD3012424075B
:10226000A14204D2814202D209011B01F8E7E40035
:10227000A14204D2814202D249005B00F8E78842C1
:1022800001D3401A1A434C08A04202D3001B5C0839
:1022900022438C08A04202D3001B9C082243CC0896
:1022A000A04202D3001BDC082243002803D01B09F4
:1022B00001D00909E3E7101C6446002C00D5404218
:1022C00010BC7047002806D003DB0020C043400844
:1022D00001E08020000607B4024802A140180290E5
:1022E00003BDC046190000000029EBD003B5FFF77D
:1022F000A7FF0EBC4243891A1847C0467047C04624
:102300008446081C6146FFE71FB500F0A5F80028C9
:1023100001D40021C8421FBD10B500F02BF8404287
:10232000013010BD10B500F097F8002801DB002047
:1023300010BD012010BDC04610B500F08DF800287A
:1023400001DD002010BD012010BDC04610B500F019
:102350003BF8002801DC002010BD012010BDC04664
:1023600010B500F031F8002801DA002010BD01207E
:1023700010BDC0464A02430270B55C0A550A4300CC
:102380004A001B0EC60F120EC90FFF2B05D0FF2AE5
:1023900008D0012093420BD070BD0120002CFBD14E
:1023A000FF2AF6D10120002DF6D101209342F3D16E
:1023B000AC42F1D18E4205D0002BEDD1201C441E41
:1023C000A041E9E70020E7E74A024302F0B55C0AD2
:1023D000550A43004A001B0EC60F120EC90FFF2BF1
:1023E00031D0FF2A34D0002B16D1604260418446A0
:1023F000002A14D0002820D18E4217D1934215DC38
:1024000004DBAC4212D80020AC4212D270427041C0
:102410004042012318430CE0002AEDD194466F425C
:102420006F416046002805D1002FE5D0704201239E
:102430001843F0BD0020002FFBD1484248414042E4
:1024400001231843F5E7002CCBD002204042F0E7EF
:10245000002DC8D0F9E7C0464A024302F0B55C0A35
:10246000550A43004A001B0EC60F120EC90FFF2B60
:1024700027D0FF2A29D0002B10D0002A15D194464E
:102480006F426F416046002815D00020002F04D114
:1024900048424841404201231843F0BD6042604138
:1024A0008446002AECD00028F2D18E4211D070422E
:1024B00001231843F1E7002FF7D07042012318439E
:1024C000EBE70220002CE8D1D3E70220002DE4D175
:1024D000D1E79342EBDC04DBAC42E8D80020AC420D
:1024E000DBD270427041404201231843D5E7C04619
:1024F000F0B55F4656464D464446F0B444024600A9
:1025000083B00F1C640A360EC50F002E41D0FF2E7B
:1025100022D080231B0400201C43E4007F3E82461F
:102520008046391C4B007F02C90F7F0A1B0E8B4669
:102530003BD0FF2B34D0802212041743FF007F3B97
:1025400000215A466A40019252460A430F2A63D834
:102550007A48920082589746002C3FD108220223E5
:1025600092469846DDE70195404602282AD1019A15
:1025700001251540FF2300246402DB05600AED07F6
:102580001843284303B03CBC90469946A246AB464C
:10259000F0BD002C27D10420012282469046C0E7DE
:1025A000391C4A1E91410231CBE70121002FC8D0CE
:1025B000381C00F0B9FA431F9F4076235B421B1A78
:1025C0000021BEE7032800D1AEE001284FD10198D9
:1025D00042461040C5B200230024CDE70C2303205F
:1025E0009A4680469DE7201C00F09EFA7626431FFF
:1025F0009C4076420023361A9A46984691E78024FA
:102600000025E403FF23B7E75B463C1C01938846A3
:10261000AAE73C1C8846A7E7250C24043A0C240CA6
:102620003F04F6183F0C211C231C794353436F438E
:102630005543FB180A0C9B18B1469F4202D98022D1
:102640005202AD1809041A04090C521894011B0C0B
:10265000611E8C41920EED181443AD012C432301F1
:1026600005D5012263080120144081441C434B46D8
:102670007F33002B2DDD600704D00F222240042A77
:1026800000D00434220103D52D4B1C404B4680332F
:10269000FE2B17DD019B01251D400024FF236BE766
:1026A0008020C003044208D0074206D1041C3C43EA
:1026B0006402640A5D46FF235EE704436402640A21
:1026C000FF2359E70198A4010125640ADBB2054004
:1026D00052E77E235B424A469B1A1B2B05DD019B7A
:1026E00001251D400024002346E7221CDA404B460A
:1026F0009E339C40231C5C1EA3411343580704D007
:102700000F221A40042A00D004335A0105D5019B38
:1027100001251D40002401232EE701989C0101257D
:10272000640A0540002327E78027FF03019B3C4301
:10273000640201251D40640AFF231DE7942E000852
:10274000FFFFFFF7F8B5C20F430244004D024800F7
:10275000240E161C9B09000EC90FAD09FF2800D1DD
:1027600083E0012779408A425CD0221A002A00DCEB
:102770008EE000281ED1002D00D07AE0580704D04A
:102780000F221A40042A00D004338021C9040122F8
:102790001940324000293AD00134FF2C00D183E0A7
:1027A0009B015B0A5B02E4B2E405580AD2072043AE
:1027B0001043F8BDFF2CE1D08021C9040D431B2A32
:1027C00000DD31E1291C2020D140821A95406A1E8B
:1027D00095410D435B1B5801D0D59B019F09381CC7
:1027E00000F0A2F9421F974094425FDC141B1F23A4
:1027F0001B1B3A1C9F40611C3B1CCA405F1EBB4117
:1028000013430024BAE7131EB8D100230022DB08CB
:10281000FF2C04D1002B47D08020C00303435B0270
:102820005B0ABFE7211A002944DD002827D0FF2CCE
:10283000A4D08020C00405431B2900DDF2E0281C41
:102840002027C840791A8D40691E8D4105435B19C8
:10285000590100D492E70134FF2C59D07349012269
:102860001A400B405B08134388E7002D00D07AE73D
:1028700077E7013A002AADD0FF2CA0D17EE7002DEA
:1028800000D17BE701390029E1D0FF2CD4D175E7D5
:10289000002A1BD1621CD2B2012A4BDD5F1B7A01D8
:1028A00023D5EF1A0E1C9AE700237BE75F4BA41A8F
:1028B0003B4063E7002946D1611CC8B2012829DDED
:1028C000FF2924D0EB185B080C1C57E7002C13D011
:1028D000FF2818D08024E404524223431B2A4DDDF4
:1028E0000123EB1A041C0E1C75E7002F00D076E7BD
:1028F0000023002200248AE7002B3BD0D243002A89
:10290000EFD0FF28EAD12B1CFF240E1C36E7FF2452
:1029100000237CE7002C5CD1002B00D180E0002D4F
:1029200000D12BE75B19580100D427E73F4A012467
:10293000134023E7002C15D1002B40D1002D63D08C
:102940002B1C0E1C1AE7002C21D1002B54D0C9439C
:10295000002904D0FF284CD01B2958DD01235B1926
:10296000041C75E7002B19D1002D48D02B1C0E1C20
:10297000FF2403E72B1C041C0E1CFFE61C1C202656
:10298000D440B21A93405A1E93412343A9E7FF282B
:102990002FD08024E40449422343DDE7FF24002DA7
:1029A00000D1EBE68022DB08D203134204D0ED080D
:1029B000154201D12B1C0E1CDB00FF24DEE6002D8E
:1029C00000D1DBE65A1B500100D41CE7EB1A0E1CA9
:1029D000D4E6002B0DD0FF24002D00D1CEE68022BE
:1029E000DB08D2031342E7D0ED081542E4D12B1CDB
:1029F000E2E72B1CFF24C1E62B1C041CBEE680234F
:102A000000229B04FF2402E7231C0022FFE61C1C7B
:102A10002027CC40791A8B40591E8B4123439EE7D7
:102A20002B1CABE6012512E70125D3E6FFFFFFFBD8
:102A30004302590A4300C20F1B0E00207E2B0DDDFE
:102A40009D2B0CDC802000040143952B0ADC962092
:102A5000C31AD9404842002A00D1081C7047034BD2
:102A6000D018FBE7963B9940F4E7C046FFFFFF7F95
:102A700070B5041E3CD0C60F00D04442201C00F0AC
:102A800053F89E23251C1B1A962B0CDC0838844017
:102A90006402640ADBB2321C6402DB05600AD207FE
:102AA0001843104370BD992B0ADD0522121A211C10
:102AB000D1400A1C011C1B318D40691E8D411543FC
:102AC000052801DD421F9540164C2C406A0704D0B2
:102AD0000F221540042D00D0043461010CD59F2332
:102AE000181AFF281AD0A401640AC3B2321CD3E713
:102AF000002200230024CFE7E408FF2B04D0640267
:102B0000640ADBB2321CC7E7002C04D08020C0036B
:102B100004436402640A321CFF23BDE7321CFF2316
:102B20000024B9E7FFFFFFFB1C2101231B0498428F
:102B300001D3000C10391B0A984201D3000A08394E
:102B40001B09984201D30009043902A2105C401805
:102B50007047C046040302020101010100000000A9
:102B600000000000031C8218934202D01970013348
:102B7000FAE770470023C25C0133002AFBD1581EDC
:102B80007047000054696D653A2000004461746527
:102B90003A200000000000000000005F0000000775
:102BA000000700147F147F14242A7F2A122313089D
:102BB000646236495522500005030000001C224182
:102BC000000041221C0014083E081408083E0808B2
:102BD000005030000008080808080060600000206D
:102BE000100804023E5149453E00427F40004261C8
:102BF0005149462141454B311814127F1027454554
:102C000045393C4A4949300171090503364949496A
:102C100036064949291E00363600000056360000A7
:102C20000814224100141414141400412214080240
:102C300001510906324979413E7E1111117E7F49C9
:102C40004949363E414141227F4141221C7F494949
:102C500049417F090909013E4149497A7F0808082D
:102C60007F00417F41002040413F017F0814224105
:102C70007F404040407F020C027F7F0408107F3E6F
:102C80004141413E7F090909063E4151215E7F09CC
:102C9000192946464949493101017F01013F404018
:102CA000403F1F2040201F3F4038403F631408141E
:102CB0006307087008076151494543007F4141009F
:102CC00002040810200041417F0004020102044078
:102CD00040404040000102040020545454787F4892
:102CE0004444383844444420384444487F38545499
:102CF0005418087E0901020C5252523E7F08040407
:102D00007800447D40002040443D007F102844006E
:102D100000417F40007C041804787C080404783863
:102D2000444444387C14141408081414187C7C0897
:102D30000404084854545420043F4440203C40407C
:102D4000207C1C2040201C3C4030403C4428102863
:102D5000440C5050503C4464544C440008364100EC
:102D600000007F00000041360800100808100878B5
:102D700046414678FF0000000000000000030609FD
:102D80000C101316191C1F2225282B2E313336390F
:102D90003C3F414447494C4E515355585A5C5E6044
:102DA000626466686A6B6D6F70717374757678793A
:102DB0007A7A7B7C7D7D7E7E7E7F7F7F7F7F7F7F3B
:102DC0007E7E7E7D7D7C7B7A7A7978767574737170
:102DD000706F6D6B6A68666462605E5C5A585553CA
:102DE000514E4C494744413F3C393633312E2B2814
:102DF00025221F1C191613100C09060300FDFAF7F3
:102E0000F4F0EDEAE7E4E1DEDBD8D5D2CFCDCAC7F6
:102E1000C4C1BFBCB9B7B4B2AFADABA8A6A4A2A0A1
:102E20009E9C9A9896959391908F8D8C8B8A88878B
:102E3000868685848383828282818181818181816A
:102E400082828283838485868687888A8B8C8D8F15
:102E50009091939596989A9C9EA0A2A4A6A8ABAD9B
:102E6000AFB2B4B7B9BCBFC1C4C7CACDCFD2D5D831
:102E7000DBDEE1E4E7EAEDF0F4F7FAFDCA19000859
:102E80005C19000872190008881900089E190008CA
:102E9000B419000818260008122600081226000897
:102EA000082600086825000868250008FE25000897
:102EB0000826000868250008FE2500086825000887
:102EC0000826000866250008662500086625000813
:042ED000A026000830
:102ED400006CDC020000000000000000010203049A
:082EE4000607080901000000C7
:0400000508000000EF
:00000001FF
